{
  "contractName": "SocialNetwork",
  "abi": [
    {
      "constant": true,
      "inputs": [],
      "name": "name",
      "outputs": [
        {
          "name": "",
          "type": "string"
        }
      ],
      "payable": false,
      "stateMutability": "view",
      "type": "function",
      "signature": "0x06fdde03"
    },
    {
      "constant": true,
      "inputs": [
        {
          "name": "",
          "type": "uint256"
        }
      ],
      "name": "posts",
      "outputs": [
        {
          "name": "id",
          "type": "uint256"
        },
        {
          "name": "articleName",
          "type": "string"
        },
        {
          "name": "content",
          "type": "string"
        },
        {
          "name": "tipAmount",
          "type": "uint256"
        },
        {
          "name": "approvalStatus",
          "type": "bool"
        },
        {
          "name": "authenticity",
          "type": "bool"
        },
        {
          "name": "fakeCount",
          "type": "uint256"
        },
        {
          "name": "trueCount",
          "type": "uint256"
        },
        {
          "name": "prevId",
          "type": "uint256"
        },
        {
          "name": "filehash",
          "type": "string"
        },
        {
          "name": "author",
          "type": "address"
        }
      ],
      "payable": false,
      "stateMutability": "view",
      "type": "function",
      "signature": "0x0b1e7f83"
    },
    {
      "constant": true,
      "inputs": [
        {
          "name": "",
          "type": "uint256"
        }
      ],
      "name": "trueArticles",
      "outputs": [
        {
          "name": "id",
          "type": "uint256"
        },
        {
          "name": "postid",
          "type": "uint256"
        },
        {
          "name": "author",
          "type": "address"
        }
      ],
      "payable": false,
      "stateMutability": "view",
      "type": "function",
      "signature": "0x163a848b"
    },
    {
      "constant": true,
      "inputs": [],
      "name": "postCount",
      "outputs": [
        {
          "name": "",
          "type": "uint256"
        }
      ],
      "payable": false,
      "stateMutability": "view",
      "type": "function",
      "signature": "0x17906c2e"
    },
    {
      "constant": true,
      "inputs": [],
      "name": "Addresscount",
      "outputs": [
        {
          "name": "",
          "type": "uint256"
        }
      ],
      "payable": false,
      "stateMutability": "view",
      "type": "function",
      "signature": "0x3a73e6d0"
    },
    {
      "constant": true,
      "inputs": [
        {
          "name": "",
          "type": "uint256"
        }
      ],
      "name": "fakeArticles",
      "outputs": [
        {
          "name": "id",
          "type": "uint256"
        },
        {
          "name": "postid",
          "type": "uint256"
        },
        {
          "name": "author",
          "type": "address"
        }
      ],
      "payable": false,
      "stateMutability": "view",
      "type": "function",
      "signature": "0x666c2872"
    },
    {
      "constant": true,
      "inputs": [],
      "name": "fakeArticleCount",
      "outputs": [
        {
          "name": "",
          "type": "uint256"
        }
      ],
      "payable": false,
      "stateMutability": "view",
      "type": "function",
      "signature": "0xb75e4aab"
    },
    {
      "constant": true,
      "inputs": [],
      "name": "trueArticleCount",
      "outputs": [
        {
          "name": "",
          "type": "uint256"
        }
      ],
      "payable": false,
      "stateMutability": "view",
      "type": "function",
      "signature": "0xee60b83e"
    },
    {
      "constant": true,
      "inputs": [
        {
          "name": "",
          "type": "uint256"
        }
      ],
      "name": "addressStatus",
      "outputs": [
        {
          "name": "id",
          "type": "uint256"
        },
        {
          "name": "postid",
          "type": "uint256"
        },
        {
          "name": "timestamp",
          "type": "uint256"
        },
        {
          "name": "blocked",
          "type": "bool"
        },
        {
          "name": "author",
          "type": "address"
        }
      ],
      "payable": false,
      "stateMutability": "view",
      "type": "function",
      "signature": "0xf62d0a57"
    },
    {
      "inputs": [],
      "payable": false,
      "stateMutability": "nonpayable",
      "type": "constructor",
      "signature": "constructor"
    },
    {
      "anonymous": false,
      "inputs": [
        {
          "indexed": false,
          "name": "id",
          "type": "uint256"
        },
        {
          "indexed": false,
          "name": "articleName",
          "type": "string"
        },
        {
          "indexed": false,
          "name": "content",
          "type": "string"
        },
        {
          "indexed": false,
          "name": "tipAmount",
          "type": "uint256"
        },
        {
          "indexed": false,
          "name": "approvalStatus",
          "type": "bool"
        },
        {
          "indexed": false,
          "name": "authenticity",
          "type": "bool"
        },
        {
          "indexed": false,
          "name": "fakeCount",
          "type": "uint256"
        },
        {
          "indexed": false,
          "name": "trueCount",
          "type": "uint256"
        },
        {
          "indexed": false,
          "name": "prevId",
          "type": "uint256"
        },
        {
          "indexed": false,
          "name": "filehash",
          "type": "string"
        },
        {
          "indexed": false,
          "name": "author",
          "type": "address"
        }
      ],
      "name": "PostCreated",
      "type": "event",
      "signature": "0xbfc12bd619812d4d48bb42150cbb5bd507b82fc8f0207078452c207a48a7b0a5"
    },
    {
      "anonymous": false,
      "inputs": [
        {
          "indexed": false,
          "name": "id",
          "type": "uint256"
        },
        {
          "indexed": false,
          "name": "articleName",
          "type": "string"
        },
        {
          "indexed": false,
          "name": "content",
          "type": "string"
        },
        {
          "indexed": false,
          "name": "tipAmount",
          "type": "uint256"
        },
        {
          "indexed": false,
          "name": "approvalStatus",
          "type": "bool"
        },
        {
          "indexed": false,
          "name": "authenticity",
          "type": "bool"
        },
        {
          "indexed": false,
          "name": "fakeCount",
          "type": "uint256"
        },
        {
          "indexed": false,
          "name": "trueCount",
          "type": "uint256"
        },
        {
          "indexed": false,
          "name": "prevId",
          "type": "uint256"
        },
        {
          "indexed": false,
          "name": "filehash",
          "type": "string"
        },
        {
          "indexed": false,
          "name": "author",
          "type": "address"
        }
      ],
      "name": "PostModified",
      "type": "event",
      "signature": "0xe81733b665d544b72a6513d8e9a232b616724c3a4736d6fe9b52266ddc690e00"
    },
    {
      "anonymous": false,
      "inputs": [
        {
          "indexed": false,
          "name": "id",
          "type": "uint256"
        },
        {
          "indexed": false,
          "name": "articleName",
          "type": "string"
        },
        {
          "indexed": false,
          "name": "content",
          "type": "string"
        },
        {
          "indexed": false,
          "name": "tipAmount",
          "type": "uint256"
        },
        {
          "indexed": false,
          "name": "approvalStatus",
          "type": "bool"
        },
        {
          "indexed": false,
          "name": "authenticity",
          "type": "bool"
        },
        {
          "indexed": false,
          "name": "fakeCount",
          "type": "uint256"
        },
        {
          "indexed": false,
          "name": "trueCount",
          "type": "uint256"
        },
        {
          "indexed": false,
          "name": "prevId",
          "type": "uint256"
        },
        {
          "indexed": false,
          "name": "filehash",
          "type": "string"
        },
        {
          "indexed": false,
          "name": "author",
          "type": "address"
        }
      ],
      "name": "PostTipped",
      "type": "event",
      "signature": "0x507142e12960c5a0e150eae3060b2e48b5fd38d9d6fb0c6714fc8a480f96a908"
    },
    {
      "anonymous": false,
      "inputs": [
        {
          "indexed": false,
          "name": "id",
          "type": "uint256"
        },
        {
          "indexed": false,
          "name": "articleName",
          "type": "string"
        },
        {
          "indexed": false,
          "name": "content",
          "type": "string"
        },
        {
          "indexed": false,
          "name": "tipAmount",
          "type": "uint256"
        },
        {
          "indexed": false,
          "name": "approvalStatus",
          "type": "bool"
        },
        {
          "indexed": false,
          "name": "authenticity",
          "type": "bool"
        },
        {
          "indexed": false,
          "name": "fakeCount",
          "type": "uint256"
        },
        {
          "indexed": false,
          "name": "trueCount",
          "type": "uint256"
        },
        {
          "indexed": false,
          "name": "prevId",
          "type": "uint256"
        },
        {
          "indexed": false,
          "name": "filehash",
          "type": "string"
        },
        {
          "indexed": false,
          "name": "author",
          "type": "address"
        }
      ],
      "name": "PostApproved",
      "type": "event",
      "signature": "0x789aafdb16ef2d4a1d7d77a7d334f42ee38babf3c87f7035f3ff1217c3fdac71"
    },
    {
      "anonymous": false,
      "inputs": [
        {
          "indexed": false,
          "name": "id",
          "type": "uint256"
        },
        {
          "indexed": false,
          "name": "articleName",
          "type": "string"
        },
        {
          "indexed": false,
          "name": "content",
          "type": "string"
        },
        {
          "indexed": false,
          "name": "tipAmount",
          "type": "uint256"
        },
        {
          "indexed": false,
          "name": "approvalStatus",
          "type": "bool"
        },
        {
          "indexed": false,
          "name": "authenticity",
          "type": "bool"
        },
        {
          "indexed": false,
          "name": "fakeCount",
          "type": "uint256"
        },
        {
          "indexed": false,
          "name": "trueCount",
          "type": "uint256"
        },
        {
          "indexed": false,
          "name": "prevId",
          "type": "uint256"
        },
        {
          "indexed": false,
          "name": "filehash",
          "type": "string"
        },
        {
          "indexed": false,
          "name": "author",
          "type": "address"
        }
      ],
      "name": "reportPostFake",
      "type": "event",
      "signature": "0x0341c8253f730d567f53247a71a6cdcd1d92ebd68accf3b0e24bc62b2544bed8"
    },
    {
      "anonymous": false,
      "inputs": [
        {
          "indexed": false,
          "name": "id",
          "type": "uint256"
        },
        {
          "indexed": false,
          "name": "articleName",
          "type": "string"
        },
        {
          "indexed": false,
          "name": "content",
          "type": "string"
        },
        {
          "indexed": false,
          "name": "tipAmount",
          "type": "uint256"
        },
        {
          "indexed": false,
          "name": "approvalStatus",
          "type": "bool"
        },
        {
          "indexed": false,
          "name": "authenticity",
          "type": "bool"
        },
        {
          "indexed": false,
          "name": "fakeCount",
          "type": "uint256"
        },
        {
          "indexed": false,
          "name": "trueCount",
          "type": "uint256"
        },
        {
          "indexed": false,
          "name": "prevId",
          "type": "uint256"
        },
        {
          "indexed": false,
          "name": "filehash",
          "type": "string"
        },
        {
          "indexed": false,
          "name": "author",
          "type": "address"
        }
      ],
      "name": "reportPostTrue",
      "type": "event",
      "signature": "0x47e1bb585f32cfa98277ebd43cb92224d775ad13993b3cd2b4ee1dcc7aed7ebe"
    },
    {
      "anonymous": false,
      "inputs": [
        {
          "indexed": false,
          "name": "id",
          "type": "uint256"
        },
        {
          "indexed": false,
          "name": "postid",
          "type": "uint256"
        },
        {
          "indexed": false,
          "name": "author",
          "type": "address"
        }
      ],
      "name": "FakeArticle",
      "type": "event",
      "signature": "0x5718d737d866f1dcaa3d010b3cbda48e61a386f3aca3de95f16b1ee157dbeed0"
    },
    {
      "anonymous": false,
      "inputs": [
        {
          "indexed": false,
          "name": "id",
          "type": "uint256"
        },
        {
          "indexed": false,
          "name": "postid",
          "type": "uint256"
        },
        {
          "indexed": false,
          "name": "author",
          "type": "address"
        }
      ],
      "name": "TrueArticle",
      "type": "event",
      "signature": "0x2828575fdb2ff7f74c4316b5500436c82e38876cd03df103b5fba1647f106a66"
    },
    {
      "anonymous": false,
      "inputs": [
        {
          "indexed": false,
          "name": "id",
          "type": "uint256"
        },
        {
          "indexed": false,
          "name": "postid",
          "type": "uint256"
        },
        {
          "indexed": false,
          "name": "timestamp",
          "type": "uint256"
        },
        {
          "indexed": false,
          "name": "blocked",
          "type": "bool"
        },
        {
          "indexed": false,
          "name": "author",
          "type": "address"
        }
      ],
      "name": "addAddressStatus",
      "type": "event",
      "signature": "0xa09c7422ce5984c76f2bf0803f5b8387b6c5031fd3051b6f64fbf4199df14f86"
    },
    {
      "constant": false,
      "inputs": [
        {
          "name": "_articleName",
          "type": "string"
        },
        {
          "name": "_content",
          "type": "string"
        },
        {
          "name": "filehash",
          "type": "string"
        }
      ],
      "name": "createPost",
      "outputs": [],
      "payable": false,
      "stateMutability": "nonpayable",
      "type": "function",
      "signature": "0xe8a4a1eb"
    },
    {
      "constant": true,
      "inputs": [
        {
          "name": "_id",
          "type": "uint256"
        }
      ],
      "name": "getHash",
      "outputs": [
        {
          "name": "",
          "type": "string"
        }
      ],
      "payable": false,
      "stateMutability": "view",
      "type": "function",
      "signature": "0x6b2fafa9"
    },
    {
      "constant": false,
      "inputs": [
        {
          "name": "_id",
          "type": "uint256"
        },
        {
          "name": "_articleName",
          "type": "string"
        },
        {
          "name": "_content",
          "type": "string"
        },
        {
          "name": "filehash",
          "type": "string"
        }
      ],
      "name": "modifyPost",
      "outputs": [],
      "payable": false,
      "stateMutability": "nonpayable",
      "type": "function",
      "signature": "0x000681f1"
    },
    {
      "constant": false,
      "inputs": [
        {
          "name": "_id",
          "type": "uint256"
        }
      ],
      "name": "tipPost",
      "outputs": [],
      "payable": true,
      "stateMutability": "payable",
      "type": "function",
      "signature": "0x74d3c1f8"
    },
    {
      "constant": false,
      "inputs": [
        {
          "name": "_id",
          "type": "uint256"
        }
      ],
      "name": "approvePost",
      "outputs": [],
      "payable": true,
      "stateMutability": "payable",
      "type": "function",
      "signature": "0x95caa166"
    },
    {
      "constant": false,
      "inputs": [
        {
          "name": "_id",
          "type": "uint256"
        }
      ],
      "name": "reportFake",
      "outputs": [],
      "payable": true,
      "stateMutability": "payable",
      "type": "function",
      "signature": "0x598a73c4"
    },
    {
      "constant": false,
      "inputs": [
        {
          "name": "_id",
          "type": "uint256"
        }
      ],
      "name": "reportTrue",
      "outputs": [],
      "payable": true,
      "stateMutability": "payable",
      "type": "function",
      "signature": "0x8e990c65"
    },
    {
      "constant": false,
      "inputs": [
        {
          "name": "_postid",
          "type": "uint256"
        }
      ],
      "name": "addFakeArticle",
      "outputs": [],
      "payable": true,
      "stateMutability": "payable",
      "type": "function",
      "signature": "0xf685f85a"
    },
    {
      "constant": false,
      "inputs": [
        {
          "name": "_postid",
          "type": "uint256"
        }
      ],
      "name": "addTrueArticle",
      "outputs": [],
      "payable": true,
      "stateMutability": "payable",
      "type": "function",
      "signature": "0x5ece52b1"
    },
    {
      "constant": false,
      "inputs": [
        {
          "name": "_postid",
          "type": "uint256"
        }
      ],
      "name": "addBlockedAddress",
      "outputs": [],
      "payable": true,
      "stateMutability": "payable",
      "type": "function",
      "signature": "0xa80f93c1"
    }
  ],
  "bytecode": "0x608060405260006001556000600255600060035560006004553480156200002557600080fd5b506040805190810160405280602081526020017f4e65777320547261636b696e6720616e642054726163696e672053797374656d81525060009080519060200190620000739291906200007a565b5062000129565b828054600181600116156101000203166002900490600052602060002090601f016020900481019282601f10620000bd57805160ff1916838001178555620000ee565b82800160010185558215620000ee579182015b82811115620000ed578251825591602001919060010190620000d0565b5b509050620000fd919062000101565b5090565b6200012691905b808211156200012257600081600090555060010162000108565b5090565b90565b61446d80620001396000396000f3fe608060405260043610610106576000357c0100000000000000000000000000000000000000000000000000000000900463ffffffff1680620681f11461010b57806306fdde031461030b5780630b1e7f831461039b578063163a848b1461059357806317906c2e1461061c5780633a73e6d014610647578063598a73c4146106725780635ece52b1146106a0578063666c2872146106ce5780636b2fafa91461075757806374d3c1f81461080b5780638e990c651461083957806395caa16614610867578063a80f93c114610895578063b75e4aab146108c3578063e8a4a1eb146108ee578063ee60b83e14610ae4578063f62d0a5714610b0f578063f685f85a14610baa575b600080fd5b34801561011757600080fd5b506103096004803603608081101561012e57600080fd5b81019080803590602001909291908035906020019064010000000081111561015557600080fd5b82018360208201111561016757600080fd5b8035906020019184600183028401116401000000008311171561018957600080fd5b91908080601f016020809104026020016040519081016040528093929190818152602001838380828437600081840152601f19601f820116905080830192505050505050509192919290803590602001906401000000008111156101ec57600080fd5b8201836020820111156101fe57600080fd5b8035906020019184600183028401116401000000008311171561022057600080fd5b91908080601f016020809104026020016040519081016040528093929190818152602001838380828437600081840152601f19601f8201169050808301925050505050505091929192908035906020019064010000000081111561028357600080fd5b82018360208201111561029557600080fd5b803590602001918460018302840111640100000000831117156102b757600080fd5b91908080601f016020809104026020016040519081016040528093929190818152602001838380828437600081840152601f19601f820116905080830192505050505050509192919290505050610bd8565b005b34801561031757600080fd5b50610320610fb5565b6040518080602001828103825283818151815260200191508051906020019080838360005b83811015610360578082015181840152602081019050610345565b50505050905090810190601f16801561038d5780820380516001836020036101000a031916815260200191505b509250505060405180910390f35b3480156103a757600080fd5b506103d4600480360360208110156103be57600080fd5b8101908080359060200190929190505050611053565b604051808c815260200180602001806020018b81526020018a15151515815260200189151515158152602001888152602001878152602001868152602001806020018573ffffffffffffffffffffffffffffffffffffffff1673ffffffffffffffffffffffffffffffffffffffff16815260200184810384528e818151815260200191508051906020019080838360005b83811015610480578082015181840152602081019050610465565b50505050905090810190601f1680156104ad5780820380516001836020036101000a031916815260200191505b5084810383528d818151815260200191508051906020019080838360005b838110156104e65780820151818401526020810190506104cb565b50505050905090810190601f1680156105135780820380516001836020036101000a031916815260200191505b50848103825286818151815260200191508051906020019080838360005b8381101561054c578082015181840152602081019050610531565b50505050905090810190601f1680156105795780820380516001836020036101000a031916815260200191505b509e50505050505050505050505050505060405180910390f35b34801561059f57600080fd5b506105cc600480360360208110156105b657600080fd5b81019080803590602001909291905050506112af565b604051808481526020018381526020018273ffffffffffffffffffffffffffffffffffffffff1673ffffffffffffffffffffffffffffffffffffffff168152602001935050505060405180910390f35b34801561062857600080fd5b506106316112f9565b6040518082815260200191505060405180910390f35b34801561065357600080fd5b5061065c6112ff565b6040518082815260200191505060405180910390f35b61069e6004803603602081101561068857600080fd5b8101908080359060200190929190505050611305565b005b6106cc600480360360208110156106b657600080fd5b81019080803590602001909291905050506119c0565b005b3480156106da57600080fd5b50610707600480360360208110156106f157600080fd5b8101908080359060200190929190505050611e50565b604051808481526020018381526020018273ffffffffffffffffffffffffffffffffffffffff1673ffffffffffffffffffffffffffffffffffffffff168152602001935050505060405180910390f35b34801561076357600080fd5b506107906004803603602081101561077a57600080fd5b8101908080359060200190929190505050611e9a565b6040518080602001828103825283818151815260200191508051906020019080838360005b838110156107d05780820151818401526020810190506107b5565b50505050905090810190601f1680156107fd5780820380516001836020036101000a031916815260200191505b509250505060405180910390f35b6108376004803603602081101561082157600080fd5b8101908080359060200190929190505050612195565b005b6108656004803603602081101561084f57600080fd5b8101908080359060200190929190505050612822565b005b6108936004803603602081101561087d57600080fd5b8101908080359060200190929190505050612edd565b005b6108c1600480360360208110156108ab57600080fd5b8101908080359060200190929190505050613587565b005b3480156108cf57600080fd5b506108d8613a65565b6040518082815260200191505060405180910390f35b3480156108fa57600080fd5b50610ae26004803603606081101561091157600080fd5b810190808035906020019064010000000081111561092e57600080fd5b82018360208201111561094057600080fd5b8035906020019184600183028401116401000000008311171561096257600080fd5b91908080601f016020809104026020016040519081016040528093929190818152602001838380828437600081840152601f19601f820116905080830192505050505050509192919290803590602001906401000000008111156109c557600080fd5b8201836020820111156109d757600080fd5b803590602001918460018302840111640100000000831117156109f957600080fd5b91908080601f016020809104026020016040519081016040528093929190818152602001838380828437600081840152601f19601f82011690508083019250505050505050919291929080359060200190640100000000811115610a5c57600080fd5b820183602082011115610a6e57600080fd5b80359060200191846001830284011164010000000083111715610a9057600080fd5b91908080601f016020809104026020016040519081016040528093929190818152602001838380828437600081840152601f19601f820116905080830192505050505050509192919290505050613a6b565b005b348015610af057600080fd5b50610af9613e2e565b6040518082815260200191505060405180910390f35b348015610b1b57600080fd5b50610b4860048036036020811015610b3257600080fd5b8101908080359060200190929190505050613e34565b60405180868152602001858152602001848152602001831515151581526020018273ffffffffffffffffffffffffffffffffffffffff1673ffffffffffffffffffffffffffffffffffffffff1681526020019550505050505060405180910390f35b610bd660048036036020811015610bc057600080fd5b8101908080359060200190929190505050613e97565b005b600084118015610bea57506001548411155b1515610bf557600080fd5b60008251111515610c0557600080fd5b60008351111515610c1557600080fd5b6001600081548092919060010191905055506101606040519081016040528060015481526020018481526020018381526020016000815260200160001515815260200160011515815260200160008152602001600081526020018581526020018281526020013373ffffffffffffffffffffffffffffffffffffffff16815250600560006001548152602001908152602001600020600082015181600001556020820151816001019080519060200190610cd0929190614327565b506040820151816002019080519060200190610ced929190614327565b506060820151816003015560808201518160040160006101000a81548160ff02191690831515021790555060a08201518160040160016101000a81548160ff02191690831515021790555060c0820151816005015560e082015181600601556101008201518160070155610120820151816008019080519060200190610d74929190614327565b506101408201518160090160006101000a81548173ffffffffffffffffffffffffffffffffffffffff021916908373ffffffffffffffffffffffffffffffffffffffff1602179055509050507fe81733b665d544b72a6513d8e9a232b616724c3a4736d6fe9b52266ddc690e00600154848460008060016000808c8a33604051808c815260200180602001806020018b81526020018a15151515815260200189151515158152602001888152602001878152602001868152602001806020018573ffffffffffffffffffffffffffffffffffffffff1673ffffffffffffffffffffffffffffffffffffffff16815260200184810384528e818151815260200191508051906020019080838360005b83811015610e9d578082015181840152602081019050610e82565b50505050905090810190601f168015610eca5780820380516001836020036101000a031916815260200191505b5084810383528d818151815260200191508051906020019080838360005b83811015610f03578082015181840152602081019050610ee8565b50505050905090810190601f168015610f305780820380516001836020036101000a031916815260200191505b50848103825286818151815260200191508051906020019080838360005b83811015610f69578082015181840152602081019050610f4e565b50505050905090810190601f168015610f965780820380516001836020036101000a031916815260200191505b509e50505050505050505050505050505060405180910390a150505050565b60008054600181600116156101000203166002900480601f01602080910402602001604051908101604052809291908181526020018280546001816001161561010002031660029004801561104b5780601f106110205761010080835404028352916020019161104b565b820191906000526020600020905b81548152906001019060200180831161102e57829003601f168201915b505050505081565b6005602052806000526040600020600091509050806000015490806001018054600181600116156101000203166002900480601f0160208091040260200160405190810160405280929190818152602001828054600181600116156101000203166002900480156111055780601f106110da57610100808354040283529160200191611105565b820191906000526020600020905b8154815290600101906020018083116110e857829003601f168201915b505050505090806002018054600181600116156101000203166002900480601f0160208091040260200160405190810160405280929190818152602001828054600181600116156101000203166002900480156111a35780601f10611178576101008083540402835291602001916111a3565b820191906000526020600020905b81548152906001019060200180831161118657829003601f168201915b5050505050908060030154908060040160009054906101000a900460ff16908060040160019054906101000a900460ff1690806005015490806006015490806007015490806008018054600181600116156101000203166002900480601f01602080910402602001604051908101604052809291908181526020018280546001816001161561010002031660029004801561127f5780601f106112545761010080835404028352916020019161127f565b820191906000526020600020905b81548152906001019060200180831161126257829003601f168201915b5050505050908060090160009054906101000a900473ffffffffffffffffffffffffffffffffffffffff1690508b565b60076020528060005260406000206000915090508060000154908060010154908060020160009054906101000a900473ffffffffffffffffffffffffffffffffffffffff16905083565b60015481565b60025481565b60008111801561131757506001548111155b151561138b576040517f08c379a00000000000000000000000000000000000000000000000000000000081526004018080602001828103825260178152602001807f506f737420646f6573206e6f742065786973742079657400000000000000000081525060200191505060405180910390fd5b6113936143a7565b60056000838152602001908152602001600020610160604051908101604052908160008201548152602001600182018054600181600116156101000203166002900480601f0160208091040260200160405190810160405280929190818152602001828054600181600116156101000203166002900480156114565780601f1061142b57610100808354040283529160200191611456565b820191906000526020600020905b81548152906001019060200180831161143957829003601f168201915b50505050508152602001600282018054600181600116156101000203166002900480601f0160208091040260200160405190810160405280929190818152602001828054600181600116156101000203166002900480156114f85780601f106114cd576101008083540402835291602001916114f8565b820191906000526020600020905b8154815290600101906020018083116114db57829003601f168201915b50505050508152602001600382015481526020016004820160009054906101000a900460ff161515151581526020016004820160019054906101000a900460ff16151515158152602001600582015481526020016006820154815260200160078201548152602001600882018054600181600116156101000203166002900480601f0160208091040260200160405190810160405280929190818152602001828054600181600116156101000203166002900480156115f85780601f106115cd576101008083540402835291602001916115f8565b820191906000526020600020905b8154815290600101906020018083116115db57829003601f168201915b505050505081526020016009820160009054906101000a900473ffffffffffffffffffffffffffffffffffffffff1673ffffffffffffffffffffffffffffffffffffffff1673ffffffffffffffffffffffffffffffffffffffff1681525050905060008160a001901515908115158152505060018160c00151018160c001818152505080600560008481526020019081526020016000206000820151816000015560208201518160010190805190602001906116b5929190614327565b5060408201518160020190805190602001906116d2929190614327565b506060820151816003015560808201518160040160006101000a81548160ff02191690831515021790555060a08201518160040160016101000a81548160ff02191690831515021790555060c0820151816005015560e082015181600601556101008201518160070155610120820151816008019080519060200190611759929190614327565b506101408201518160090160006101000a81548173ffffffffffffffffffffffffffffffffffffffff021916908373ffffffffffffffffffffffffffffffffffffffff1602179055509050507f0341c8253f730d567f53247a71a6cdcd1d92ebd68accf3b0e24bc62b2544bed860015482602001518360400151846060015185608001518660a001518760c001518860e001518961010001518a61012001518b6101400151604051808c815260200180602001806020018b81526020018a15151515815260200189151515158152602001888152602001878152602001868152602001806020018573ffffffffffffffffffffffffffffffffffffffff1673ffffffffffffffffffffffffffffffffffffffff16815260200184810384528e818151815260200191508051906020019080838360005b838110156118aa57808201518184015260208101905061188f565b50505050905090810190601f1680156118d75780820380516001836020036101000a031916815260200191505b5084810383528d818151815260200191508051906020019080838360005b838110156119105780820151818401526020810190506118f5565b50505050905090810190601f16801561193d5780820380516001836020036101000a031916815260200191505b50848103825286818151815260200191508051906020019080838360005b8381101561197657808201518184015260208101905061195b565b50505050905090810190601f1680156119a35780820380516001836020036101000a031916815260200191505b509e50505050505050505050505050505060405180910390a15050565b6000811180156119d257506001548111155b1515611a46576040517f08c379a00000000000000000000000000000000000000000000000000000000081526004018080602001828103825260178152602001807f506f737420646f6573206e6f742065786973742079657400000000000000000081525060200191505060405180910390fd5b611a4e6143a7565b60056000838152602001908152602001600020610160604051908101604052908160008201548152602001600182018054600181600116156101000203166002900480601f016020809104026020016040519081016040528092919081815260200182805460018160011615610100020316600290048015611b115780601f10611ae657610100808354040283529160200191611b11565b820191906000526020600020905b815481529060010190602001808311611af457829003601f168201915b50505050508152602001600282018054600181600116156101000203166002900480601f016020809104026020016040519081016040528092919081815260200182805460018160011615610100020316600290048015611bb35780601f10611b8857610100808354040283529160200191611bb3565b820191906000526020600020905b815481529060010190602001808311611b9657829003601f168201915b50505050508152602001600382015481526020016004820160009054906101000a900460ff161515151581526020016004820160019054906101000a900460ff16151515158152602001600582015481526020016006820154815260200160078201548152602001600882018054600181600116156101000203166002900480601f016020809104026020016040519081016040528092919081815260200182805460018160011615610100020316600290048015611cb35780601f10611c8857610100808354040283529160200191611cb3565b820191906000526020600020905b815481529060010190602001808311611c9657829003601f168201915b505050505081526020016009820160009054906101000a900473ffffffffffffffffffffffffffffffffffffffff1673ffffffffffffffffffffffffffffffffffffffff1673ffffffffffffffffffffffffffffffffffffffff16815250509050600460008154809291906001019190505550606060405190810160405280600454815260200183815260200182610140015173ffffffffffffffffffffffffffffffffffffffff16815250600760006004548152602001908152602001600020600082015181600001556020820151816001015560408201518160020160006101000a81548173ffffffffffffffffffffffffffffffffffffffff021916908373ffffffffffffffffffffffffffffffffffffffff1602179055509050507f2828575fdb2ff7f74c4316b5500436c82e38876cd03df103b5fba1647f106a6660045483836101400151604051808481526020018381526020018273ffffffffffffffffffffffffffffffffffffffff1673ffffffffffffffffffffffffffffffffffffffff168152602001935050505060405180910390a15050565b60066020528060005260406000206000915090508060000154908060010154908060020160009054906101000a900473ffffffffffffffffffffffffffffffffffffffff16905083565b6060600082118015611eae57506001548211155b1515611eb957600080fd5b611ec16143a7565b60056000848152602001908152602001600020610160604051908101604052908160008201548152602001600182018054600181600116156101000203166002900480601f016020809104026020016040519081016040528092919081815260200182805460018160011615610100020316600290048015611f845780601f10611f5957610100808354040283529160200191611f84565b820191906000526020600020905b815481529060010190602001808311611f6757829003601f168201915b50505050508152602001600282018054600181600116156101000203166002900480601f0160208091040260200160405190810160405280929190818152602001828054600181600116156101000203166002900480156120265780601f10611ffb57610100808354040283529160200191612026565b820191906000526020600020905b81548152906001019060200180831161200957829003601f168201915b50505050508152602001600382015481526020016004820160009054906101000a900460ff161515151581526020016004820160019054906101000a900460ff16151515158152602001600582015481526020016006820154815260200160078201548152602001600882018054600181600116156101000203166002900480601f0160208091040260200160405190810160405280929190818152602001828054600181600116156101000203166002900480156121265780601f106120fb57610100808354040283529160200191612126565b820191906000526020600020905b81548152906001019060200180831161210957829003601f168201915b505050505081526020016009820160009054906101000a900473ffffffffffffffffffffffffffffffffffffffff1673ffffffffffffffffffffffffffffffffffffffff1673ffffffffffffffffffffffffffffffffffffffff16815250509050806101200151915050919050565b6000811180156121a757506001548111155b15156121b257600080fd5b6121ba6143a7565b60056000838152602001908152602001600020610160604051908101604052908160008201548152602001600182018054600181600116156101000203166002900480601f01602080910402602001604051908101604052809291908181526020018280546001816001161561010002031660029004801561227d5780601f106122525761010080835404028352916020019161227d565b820191906000526020600020905b81548152906001019060200180831161226057829003601f168201915b50505050508152602001600282018054600181600116156101000203166002900480601f01602080910402602001604051908101604052809291908181526020018280546001816001161561010002031660029004801561231f5780601f106122f45761010080835404028352916020019161231f565b820191906000526020600020905b81548152906001019060200180831161230257829003601f168201915b50505050508152602001600382015481526020016004820160009054906101000a900460ff161515151581526020016004820160019054906101000a900460ff16151515158152602001600582015481526020016006820154815260200160078201548152602001600882018054600181600116156101000203166002900480601f01602080910402602001604051908101604052809291908181526020018280546001816001161561010002031660029004801561241f5780601f106123f45761010080835404028352916020019161241f565b820191906000526020600020905b81548152906001019060200180831161240257829003601f168201915b505050505081526020016009820160009054906101000a900473ffffffffffffffffffffffffffffffffffffffff1673ffffffffffffffffffffffffffffffffffffffff1673ffffffffffffffffffffffffffffffffffffffff16815250509050600081610140015190508073ffffffffffffffffffffffffffffffffffffffff166108fc349081150290604051600060405180830381858888f193505050501580156124d0573d6000803e3d6000fd5b5034826060015101826060018181525050816005600085815260200190815260200160002060008201518160000155602082015181600101908051906020019061251b929190614327565b506040820151816002019080519060200190612538929190614327565b506060820151816003015560808201518160040160006101000a81548160ff02191690831515021790555060a08201518160040160016101000a81548160ff02191690831515021790555060c0820151816005015560e0820151816006015561010082015181600701556101208201518160080190805190602001906125bf929190614327565b506101408201518160090160006101000a81548173ffffffffffffffffffffffffffffffffffffffff021916908373ffffffffffffffffffffffffffffffffffffffff1602179055509050507f507142e12960c5a0e150eae3060b2e48b5fd38d9d6fb0c6714fc8a480f96a90860015483602001518460400151856060015186608001518760a001518860c001518960e001518a61010001518b61012001518b604051808c815260200180602001806020018b81526020018a15151515815260200189151515158152602001888152602001878152602001868152602001806020018573ffffffffffffffffffffffffffffffffffffffff1673ffffffffffffffffffffffffffffffffffffffff16815260200184810384528e818151815260200191508051906020019080838360005b8381101561270b5780820151818401526020810190506126f0565b50505050905090810190601f1680156127385780820380516001836020036101000a031916815260200191505b5084810383528d818151815260200191508051906020019080838360005b83811015612771578082015181840152602081019050612756565b50505050905090810190601f16801561279e5780820380516001836020036101000a031916815260200191505b50848103825286818151815260200191508051906020019080838360005b838110156127d75780820151818401526020810190506127bc565b50505050905090810190601f1680156128045780820380516001836020036101000a031916815260200191505b509e50505050505050505050505050505060405180910390a1505050565b60008111801561283457506001548111155b15156128a8576040517f08c379a00000000000000000000000000000000000000000000000000000000081526004018080602001828103825260178152602001807f506f737420646f6573206e6f742065786973742079657400000000000000000081525060200191505060405180910390fd5b6128b06143a7565b60056000838152602001908152602001600020610160604051908101604052908160008201548152602001600182018054600181600116156101000203166002900480601f0160208091040260200160405190810160405280929190818152602001828054600181600116156101000203166002900480156129735780601f1061294857610100808354040283529160200191612973565b820191906000526020600020905b81548152906001019060200180831161295657829003601f168201915b50505050508152602001600282018054600181600116156101000203166002900480601f016020809104026020016040519081016040528092919081815260200182805460018160011615610100020316600290048015612a155780601f106129ea57610100808354040283529160200191612a15565b820191906000526020600020905b8154815290600101906020018083116129f857829003601f168201915b50505050508152602001600382015481526020016004820160009054906101000a900460ff161515151581526020016004820160019054906101000a900460ff16151515158152602001600582015481526020016006820154815260200160078201548152602001600882018054600181600116156101000203166002900480601f016020809104026020016040519081016040528092919081815260200182805460018160011615610100020316600290048015612b155780601f10612aea57610100808354040283529160200191612b15565b820191906000526020600020905b815481529060010190602001808311612af857829003601f168201915b505050505081526020016009820160009054906101000a900473ffffffffffffffffffffffffffffffffffffffff1673ffffffffffffffffffffffffffffffffffffffff1673ffffffffffffffffffffffffffffffffffffffff1681525050905060018160a001901515908115158152505060018160e00151018160e00181815250508060056000848152602001908152602001600020600082015181600001556020820151816001019080519060200190612bd2929190614327565b506040820151816002019080519060200190612bef929190614327565b506060820151816003015560808201518160040160006101000a81548160ff02191690831515021790555060a08201518160040160016101000a81548160ff02191690831515021790555060c0820151816005015560e082015181600601556101008201518160070155610120820151816008019080519060200190612c76929190614327565b506101408201518160090160006101000a81548173ffffffffffffffffffffffffffffffffffffffff021916908373ffffffffffffffffffffffffffffffffffffffff1602179055509050507f47e1bb585f32cfa98277ebd43cb92224d775ad13993b3cd2b4ee1dcc7aed7ebe60015482602001518360400151846060015185608001518660a001518760c001518860e001518961010001518a61012001518b6101400151604051808c815260200180602001806020018b81526020018a15151515815260200189151515158152602001888152602001878152602001868152602001806020018573ffffffffffffffffffffffffffffffffffffffff1673ffffffffffffffffffffffffffffffffffffffff16815260200184810384528e818151815260200191508051906020019080838360005b83811015612dc7578082015181840152602081019050612dac565b50505050905090810190601f168015612df45780820380516001836020036101000a031916815260200191505b5084810383528d818151815260200191508051906020019080838360005b83811015612e2d578082015181840152602081019050612e12565b50505050905090810190601f168015612e5a5780820380516001836020036101000a031916815260200191505b50848103825286818151815260200191508051906020019080838360005b83811015612e93578082015181840152602081019050612e78565b50505050905090810190601f168015612ec05780820380516001836020036101000a031916815260200191505b509e50505050505050505050505050505060405180910390a15050565b600081118015612eef57506001548111155b1515612f63576040517f08c379a00000000000000000000000000000000000000000000000000000000081526004018080602001828103825260178152602001807f506f737420646f6573206e6f742065786973742079657400000000000000000081525060200191505060405180910390fd5b612f6b6143a7565b60056000838152602001908152602001600020610160604051908101604052908160008201548152602001600182018054600181600116156101000203166002900480601f01602080910402602001604051908101604052809291908181526020018280546001816001161561010002031660029004801561302e5780601f106130035761010080835404028352916020019161302e565b820191906000526020600020905b81548152906001019060200180831161301157829003601f168201915b50505050508152602001600282018054600181600116156101000203166002900480601f0160208091040260200160405190810160405280929190818152602001828054600181600116156101000203166002900480156130d05780601f106130a5576101008083540402835291602001916130d0565b820191906000526020600020905b8154815290600101906020018083116130b357829003601f168201915b50505050508152602001600382015481526020016004820160009054906101000a900460ff161515151581526020016004820160019054906101000a900460ff16151515158152602001600582015481526020016006820154815260200160078201548152602001600882018054600181600116156101000203166002900480601f0160208091040260200160405190810160405280929190818152602001828054600181600116156101000203166002900480156131d05780601f106131a5576101008083540402835291602001916131d0565b820191906000526020600020905b8154815290600101906020018083116131b357829003601f168201915b505050505081526020016009820160009054906101000a900473ffffffffffffffffffffffffffffffffffffffff1673ffffffffffffffffffffffffffffffffffffffff1673ffffffffffffffffffffffffffffffffffffffff168152505090506001816080019015159081151581525050806005600084815260200190815260200160002060008201518160000155602082015181600101908051906020019061327c929190614327565b506040820151816002019080519060200190613299929190614327565b506060820151816003015560808201518160040160006101000a81548160ff02191690831515021790555060a08201518160040160016101000a81548160ff02191690831515021790555060c0820151816005015560e082015181600601556101008201518160070155610120820151816008019080519060200190613320929190614327565b506101408201518160090160006101000a81548173ffffffffffffffffffffffffffffffffffffffff021916908373ffffffffffffffffffffffffffffffffffffffff1602179055509050507f789aafdb16ef2d4a1d7d77a7d334f42ee38babf3c87f7035f3ff1217c3fdac7160015482602001518360400151846060015185608001518660a001518760c001518860e001518961010001518a61012001518b6101400151604051808c815260200180602001806020018b81526020018a15151515815260200189151515158152602001888152602001878152602001868152602001806020018573ffffffffffffffffffffffffffffffffffffffff1673ffffffffffffffffffffffffffffffffffffffff16815260200184810384528e818151815260200191508051906020019080838360005b83811015613471578082015181840152602081019050613456565b50505050905090810190601f16801561349e5780820380516001836020036101000a031916815260200191505b5084810383528d818151815260200191508051906020019080838360005b838110156134d75780820151818401526020810190506134bc565b50505050905090810190601f1680156135045780820380516001836020036101000a031916815260200191505b50848103825286818151815260200191508051906020019080838360005b8381101561353d578082015181840152602081019050613522565b50505050905090810190601f16801561356a5780820380516001836020036101000a031916815260200191505b509e50505050505050505050505050505060405180910390a15050565b60008111801561359957506001548111155b151561360d576040517f08c379a00000000000000000000000000000000000000000000000000000000081526004018080602001828103825260178152602001807f506f737420646f6573206e6f742065786973742079657400000000000000000081525060200191505060405180910390fd5b6136156143a7565b60056000838152602001908152602001600020610160604051908101604052908160008201548152602001600182018054600181600116156101000203166002900480601f0160208091040260200160405190810160405280929190818152602001828054600181600116156101000203166002900480156136d85780601f106136ad576101008083540402835291602001916136d8565b820191906000526020600020905b8154815290600101906020018083116136bb57829003601f168201915b50505050508152602001600282018054600181600116156101000203166002900480601f01602080910402602001604051908101604052809291908181526020018280546001816001161561010002031660029004801561377a5780601f1061374f5761010080835404028352916020019161377a565b820191906000526020600020905b81548152906001019060200180831161375d57829003601f168201915b50505050508152602001600382015481526020016004820160009054906101000a900460ff161515151581526020016004820160019054906101000a900460ff16151515158152602001600582015481526020016006820154815260200160078201548152602001600882018054600181600116156101000203166002900480601f01602080910402602001604051908101604052809291908181526020018280546001816001161561010002031660029004801561387a5780601f1061384f5761010080835404028352916020019161387a565b820191906000526020600020905b81548152906001019060200180831161385d57829003601f168201915b505050505081526020016009820160009054906101000a900473ffffffffffffffffffffffffffffffffffffffff1673ffffffffffffffffffffffffffffffffffffffff1673ffffffffffffffffffffffffffffffffffffffff1681525050905060026000815480929190600101919050555060a060405190810160405280600254815260200183815260200142815260200160011515815260200182610140015173ffffffffffffffffffffffffffffffffffffffff1681525060086000600254815260200190815260200160002060008201518160000155602082015181600101556040820151816002015560608201518160030160006101000a81548160ff02191690831515021790555060808201518160030160016101000a81548173ffffffffffffffffffffffffffffffffffffffff021916908373ffffffffffffffffffffffffffffffffffffffff1602179055509050507fa09c7422ce5984c76f2bf0803f5b8387b6c5031fd3051b6f64fbf4199df14f866002548342600185610140015160405180868152602001858152602001848152602001831515151581526020018273ffffffffffffffffffffffffffffffffffffffff1673ffffffffffffffffffffffffffffffffffffffff1681526020019550505050505060405180910390a15050565b60035481565b60008251111515613a7b57600080fd5b60008351111515613a8b57600080fd5b60016000815480929190600101919050555061016060405190810160405280600154815260200184815260200183815260200160008152602001600015158152602001600115158152602001600081526020016000815260200160015481526020018281526020013373ffffffffffffffffffffffffffffffffffffffff16815250600560006001548152602001908152602001600020600082015181600001556020820151816001019080519060200190613b48929190614327565b506040820151816002019080519060200190613b65929190614327565b506060820151816003015560808201518160040160006101000a81548160ff02191690831515021790555060a08201518160040160016101000a81548160ff02191690831515021790555060c0820151816005015560e082015181600601556101008201518160070155610120820151816008019080519060200190613bec929190614327565b506101408201518160090160006101000a81548173ffffffffffffffffffffffffffffffffffffffff021916908373ffffffffffffffffffffffffffffffffffffffff1602179055509050507fbfc12bd619812d4d48bb42150cbb5bd507b82fc8f0207078452c207a48a7b0a5600154848460008060016000806001548a33604051808c815260200180602001806020018b81526020018a15151515815260200189151515158152602001888152602001878152602001868152602001806020018573ffffffffffffffffffffffffffffffffffffffff1673ffffffffffffffffffffffffffffffffffffffff16815260200184810384528e818151815260200191508051906020019080838360005b83811015613d17578082015181840152602081019050613cfc565b50505050905090810190601f168015613d445780820380516001836020036101000a031916815260200191505b5084810383528d818151815260200191508051906020019080838360005b83811015613d7d578082015181840152602081019050613d62565b50505050905090810190601f168015613daa5780820380516001836020036101000a031916815260200191505b50848103825286818151815260200191508051906020019080838360005b83811015613de3578082015181840152602081019050613dc8565b50505050905090810190601f168015613e105780820380516001836020036101000a031916815260200191505b509e50505050505050505050505050505060405180910390a1505050565b60045481565b60086020528060005260406000206000915090508060000154908060010154908060020154908060030160009054906101000a900460ff16908060030160019054906101000a900473ffffffffffffffffffffffffffffffffffffffff16905085565b600081118015613ea957506001548111155b1515613f1d576040517f08c379a00000000000000000000000000000000000000000000000000000000081526004018080602001828103825260178152602001807f506f737420646f6573206e6f742065786973742079657400000000000000000081525060200191505060405180910390fd5b613f256143a7565b60056000838152602001908152602001600020610160604051908101604052908160008201548152602001600182018054600181600116156101000203166002900480601f016020809104026020016040519081016040528092919081815260200182805460018160011615610100020316600290048015613fe85780601f10613fbd57610100808354040283529160200191613fe8565b820191906000526020600020905b815481529060010190602001808311613fcb57829003601f168201915b50505050508152602001600282018054600181600116156101000203166002900480601f01602080910402602001604051908101604052809291908181526020018280546001816001161561010002031660029004801561408a5780601f1061405f5761010080835404028352916020019161408a565b820191906000526020600020905b81548152906001019060200180831161406d57829003601f168201915b50505050508152602001600382015481526020016004820160009054906101000a900460ff161515151581526020016004820160019054906101000a900460ff16151515158152602001600582015481526020016006820154815260200160078201548152602001600882018054600181600116156101000203166002900480601f01602080910402602001604051908101604052809291908181526020018280546001816001161561010002031660029004801561418a5780601f1061415f5761010080835404028352916020019161418a565b820191906000526020600020905b81548152906001019060200180831161416d57829003601f168201915b505050505081526020016009820160009054906101000a900473ffffffffffffffffffffffffffffffffffffffff1673ffffffffffffffffffffffffffffffffffffffff1673ffffffffffffffffffffffffffffffffffffffff16815250509050600360008154809291906001019190505550606060405190810160405280600354815260200183815260200182610140015173ffffffffffffffffffffffffffffffffffffffff16815250600660006003548152602001908152602001600020600082015181600001556020820151816001015560408201518160020160006101000a81548173ffffffffffffffffffffffffffffffffffffffff021916908373ffffffffffffffffffffffffffffffffffffffff1602179055509050507f5718d737d866f1dcaa3d010b3cbda48e61a386f3aca3de95f16b1ee157dbeed060035483836101400151604051808481526020018381526020018273ffffffffffffffffffffffffffffffffffffffff1673ffffffffffffffffffffffffffffffffffffffff168152602001935050505060405180910390a15050565b828054600181600116156101000203166002900490600052602060002090601f016020900481019282601f1061436857805160ff1916838001178555614396565b82800160010185558215614396579182015b8281111561439557825182559160200191906001019061437a565b5b5090506143a3919061441c565b5090565b610160604051908101604052806000815260200160608152602001606081526020016000815260200160001515815260200160001515815260200160008152602001600081526020016000815260200160608152602001600073ffffffffffffffffffffffffffffffffffffffff1681525090565b61443e91905b8082111561443a576000816000905550600101614422565b5090565b9056fea165627a7a723058205be5b185a1de7d1eda9025a8bc3e3dc2f6a45d4bd58b4d6b63133599a94f97d90029",
  "source": "pragma solidity 0.5.0;\n//pragma experimental ABIEncoderV2;\n\ncontract SocialNetwork {\n    // State variable\n    string public name;\n    uint public postCount = 0;\n    uint public Addresscount = 0;\n    uint public fakeArticleCount = 0;\n    uint public trueArticleCount = 0;\n\n    mapping(uint => Post) public posts;\n    mapping(uint => FakeArticles) public fakeArticles;\n    mapping(uint => TrueArticles) public trueArticles;\n    mapping(uint => AddressStatus) public addressStatus;\n\n    struct FakeArticles{\n        uint id;\n        uint postid;\n        address payable author;\n    }\n\n    struct TrueArticles{\n        uint id;\n        uint postid;\n        address payable author;\n    }\n\n    struct AddressStatus{\n        uint id;\n        uint postid;\n        uint timestamp;\n        bool blocked;\n        address payable author;\n    }\n\n    struct Post {\n        uint id;\n        string articleName;\n        string content;\n        uint tipAmount;\n        bool approvalStatus;\n        bool authenticity;\n        uint fakeCount;\n        uint trueCount;\n        uint prevId;\n        string filehash;\n        address payable author;\n    }\n\n    event PostCreated(\n        uint id,\n        string articleName,\n        string content,\n        uint tipAmount,\n        bool approvalStatus,\n        bool authenticity,\n        uint fakeCount,\n        uint trueCount,\n        uint prevId,\n        string filehash,\n        address payable author\n    );\n\n    event PostModified(\n        uint id,\n        string articleName,\n        string content,\n        uint tipAmount,\n        bool approvalStatus,\n        bool authenticity,\n        uint fakeCount,\n        uint trueCount,\n        uint prevId,\n        string filehash,\n        address payable author\n    );\n\n   event PostTipped(\n    uint id,\n    string articleName,\n    string content,\n    uint tipAmount,\n    bool approvalStatus,\n    bool authenticity,\n    uint fakeCount,\n    uint trueCount,\n    uint prevId,\n    string filehash,\n    address payable author\n);\n\n event PostApproved(\n    uint id,\n    string articleName,\n    string content,\n    uint tipAmount,\n    bool approvalStatus,\n    bool authenticity,\n    uint fakeCount,\n    uint trueCount,\n    uint prevId,\n    string filehash,\n    address payable author\n);\n\nevent reportPostFake(\n    uint id,\n    string articleName,\n    string content,\n    uint tipAmount,\n    bool approvalStatus,\n    bool authenticity,\n    uint fakeCount,\n    uint trueCount,\n    uint prevId,\n    string filehash,\n    address payable author\n);\n\nevent reportPostTrue(\n    uint id,\n    string articleName,\n    string content,\n    uint tipAmount,\n    bool approvalStatus,\n    bool authenticity,\n    uint fakeCount,\n    uint trueCount,\n    uint prevId,\n    string filehash,\n    address payable author\n);\n\nevent FakeArticle(\n    uint id,\n    uint postid,\n    address payable author\n);\n\nevent TrueArticle(\n    uint id,\n    uint postid,\n    address payable author\n);\n\nevent addAddressStatus(\n        uint id,\n        uint postid,\n        uint timestamp,\n        bool blocked,\n        address payable author\n);\n\n    // Constructor function\n    constructor () public {\n        name = \"News Tracking and Tracing System\";\n    }\n\n   function createPost(string memory _articleName, string memory _content, string memory filehash) public {\n    // Require valid content\n    require(bytes(_content).length > 0);\n    require(bytes(_articleName).length > 0);\n    // Increment the post count\n    postCount ++;\n    // Create the post\n    posts[postCount] = Post(postCount,_articleName, _content, 0,false, true,0,0,postCount,filehash,msg.sender);\n    // Trigger event\n    emit PostCreated(postCount, _articleName, _content, 0,false,true, 0,0, postCount,filehash, msg.sender);\n}\n\nfunction getHash(uint _id) public view returns (string memory){\n  require(_id > 0 && _id <= postCount);\n    // Fetch the post\n    Post memory _post = posts[_id];\n    // Fetch the author\n   return _post.filehash;\n}\n\n function modifyPost(uint _id, string memory _articleName, string memory _content, string memory filehash) public {\n    //Require valid ID\n    require(_id > 0 && _id <= postCount);\n    // Require valid content\n    require(bytes(_content).length > 0);\n    require(bytes(_articleName).length > 0);\n    // Increment the post count\n   // Post memory _post = posts[_id];\n   \n    postCount ++;\n\n    // Create the post\n    posts[postCount] = Post(postCount,_articleName, _content, 0,false, true,0,0, _id,filehash, msg.sender);\n    // Trigger event\n    emit PostModified(postCount, _articleName, _content, 0,false,true, 0,0, _id,filehash,msg.sender);\n}\n\n   function tipPost(uint _id) public payable {\n    // Make sure the id is valid\n    require(_id > 0 && _id <= postCount);\n    // Fetch the post\n    Post memory _post = posts[_id];\n    // Fetch the author\n    address payable _author = _post.author;\n    // Pay the author by sending them Ether\n    address(_author).transfer(msg.value);\n    // Increment the tip amount\n    _post.tipAmount = _post.tipAmount + msg.value;\n    // Update the post\n    posts[_id] = _post;\n    // Trigger an event\n        emit PostTipped(postCount,_post.articleName, _post.content, _post.tipAmount,\n         _post.approvalStatus, _post.authenticity,_post.fakeCount,_post.trueCount, _post.prevId,_post.filehash,_author);\n}\n    function approvePost(uint _id) public payable {\n        // Make sure the id is Valid\n        require(_id > 0 && _id <= postCount, \"Post does not exist yet\");\n        // Fetch the post\n        Post memory _post = posts[_id];\n        // Increment the tip Amount\n        _post.approvalStatus = true;\n        // Update the post\n        posts[_id] = _post;\n        // Trigger an event\n        emit PostApproved(\n            postCount,\n            _post.articleName,\n            _post.content,\n            _post.tipAmount,\n            _post.approvalStatus,\n            _post.authenticity,\n            _post.fakeCount,\n            _post.trueCount,\n            _post.prevId,\n            _post.filehash,\n            _post.author\n        );\n    }\n\n      function reportFake(uint _id) public payable {\n        // Make sure the id is Valid\n        require(_id > 0 && _id <= postCount, \"Post does not exist yet\");\n        // Fetch the post\n        Post memory _post = posts[_id];\n        // Increment the tip Amount\n        _post.authenticity = false;\n        _post.fakeCount = _post.fakeCount + 1;\n        // Update the post\n        posts[_id] = _post;\n        // Trigger an event\n        emit reportPostFake(\n            postCount,\n            _post.articleName,\n            _post.content,\n            _post.tipAmount,\n            _post.approvalStatus,\n            _post.authenticity,\n            _post.fakeCount,\n            _post.trueCount,\n            _post.prevId,\n            _post.filehash,\n            _post.author\n        );\n    }\n\n    function reportTrue(uint _id) public payable {\n        // Make sure the id is Valid\n        require(_id > 0 && _id <= postCount, \"Post does not exist yet\");\n        // Fetch the post\n        Post memory _post = posts[_id];\n        // Increment the tip Amount\n        _post.authenticity = true;\n        _post.trueCount = _post.trueCount + 1;\n        // Update the post\n        posts[_id] = _post;\n        // Trigger an event\n        emit reportPostTrue(\n            postCount,\n            _post.articleName,\n            _post.content,\n            _post.tipAmount,\n            _post.approvalStatus,\n            _post.authenticity,\n            _post.fakeCount,\n            _post.trueCount,\n            _post.prevId,\n            _post.filehash,\n            _post.author\n        );\n    }\n\n    function addFakeArticle(uint _postid) public payable {\n        // Make sure the id is Valid\n        require(_postid > 0 && _postid <= postCount, \"Post does not exist yet\");\n        // Fetch the post\n        Post memory _post = posts[_postid];\n        // Increment the fakeArticle count\n        fakeArticleCount++;\n        //Add it to the fake article list\n         fakeArticles[fakeArticleCount] = FakeArticles(fakeArticleCount,_postid, _post.author);\n        //Trigger an event\n         emit FakeArticle(\n             fakeArticleCount,\n             _postid,\n             _post.author\n         );\n    }\n\n    function addTrueArticle(uint _postid) public payable {\n        // Make sure the id is Valid\n        require(_postid > 0 && _postid <= postCount, \"Post does not exist yet\");\n        // Fetch the post\n        Post memory _post = posts[_postid];\n        // Increment the true article count\n        trueArticleCount++;\n        //Add it to the true article list\n         trueArticles[trueArticleCount] = TrueArticles(trueArticleCount,_postid, _post.author);\n        //Trigger an event\n         emit TrueArticle(\n             trueArticleCount,\n             _postid,\n             _post.author\n         );\n    }\n\n    function addBlockedAddress(uint _postid) public payable {\n        // Make sure the id is Valid\n        require(_postid > 0 && _postid <= postCount, \"Post does not exist yet\");\n        // Fetch the post\n        Post memory _post = posts[_postid];\n        // Increment the address count\n        Addresscount++;\n        //Add it to the fake article list\n         addressStatus[Addresscount] = AddressStatus(Addresscount,_postid,now ,true, _post.author);\n        //Trigger an event\n         emit addAddressStatus(\n             Addresscount,\n             _postid,\n             now,\n             true,\n             _post.author\n         );\n    }\n\n}",
  "sourcePath": "/home/akshada/Blockchain-based-News-tracking-system-/social-network/src/contracts/SocialNetwork.sol",
  "compiler": {
    "name": "solc",
    "version": "0.5.0+commit.1d4f565a.Emscripten.clang"
  },
  "schemaVersion": "3.0.1",
  "updatedAt": "2020-05-23T05:58:57.808Z",
  "devdoc": {
    "methods": {}
  },
  "userdoc": {
    "methods": {}
  }
}